:100000000A128A11FA2FFF1B0D2883137F188317FA
:100010000008840A0319FF0A08007F087F398A0054
:0A0020000408840A0319FF0A820095
:100CE800F00083160313981C7A2E7B2E752E70083D
:100CF8008312031399000800952E7208FF007108EB
:100D080084000A128A1103200A128A110A128A110F
:100D180074260A128A110130F1070318F20A00300A
:100D2800F207720883120313FF00710884000A1285
:100D38008A1103200A128A11003A031DA42EA52E37
:100D4800812E0800013083160317880089010130BD
:100D58008316031385008601831203138501860118
:100D68007030831603138F040F1418121815831686
:100D780003178715CF308316031399009A0183123E
:100D880003139817181318168316031398161F12AF
:100D98009F129F130C17831203130C133F309F05E8
:100DA800C3309F051F1408000A128A11A6260A12CA
:100DB8008A112030F1008830F2000A128A11802648
:100DC8000A128A117730F1008830F2000A128A116B
:100DD80080260A128A11A530F1008830F2000A1222
:100DE8008A1180260A128A119030F1008830F200A8
:100DF8000A128A1180260A128A115B30F1008830A3
:100E0800F2000A128A1180260A128A118312031329
:100E18008C1E0F2F102F0A2F1A08F600E12F003012
:100E2800F1008830F2000A128A1180260A128A110B
:100E3800831203138C1E212F222F1C2F1A08F60051
:100E48007F2FF130F1008830F2000A128A118026D3
:100E58000A128A11DD2ED930F1008830F2000A1208
:100E68008A1180260A128A11DD2EDC30F1008830C2
:100E7800F2000A128A1180260A128A11DD2EDF304A
:100E8800F1008830F2000A128A1180260A128A11AB
:100E9800DD2EE230F1008830F2000A128A11802635
:100EA8000A128A11DD2EE530F1008830F2000A12AC
:100EB8008A1180260A128A11DD2EE830F100883066
:100EC800F2000A128A1180260A128A11DD2EEB30EE
:100ED800F1008830F2000A128A1180260A128A115B
:100EE800DD2EEE30F1008830F2000A128A118026D9
:100EF8000A128A11DD2E7608F300F4017408003A0C
:100F08000319872FDD2E7308323A03192F2F013A60
:100F18000319392F073A0319432F013A03194D2FA3
:100F2800033A0319572F013A0319612F0F3A03198E
:100F38006B2F013A0319752F583A0319252FDD2E07
:100F4800B830F1008830F2000A128A1180260A129D
:100F58008A11831203138C1EB22FB32FAD2F1A08D8
:100F680086003F30F1008830F2000A128A1180268C
:100F78000A128A11DD2EC830F1008830F2000A12F8
:100F88008A1180260A128A11DD2E1F0CF300730CB9
:100F98000F39003A031DD12FD22FD42F1E08F50088
:100FA80075088600DD2ED130F1008830F2000A1273
:100FB8008A1180260A128A11DD2E7608F300F401C0
:100FC8007408003A0319E92FD72F7308313A031927
:100FD800132F033A0319A42F013A0319BF2F073A15
:100FE8000319C92FD72F0A128A110028F501F60113
:100FF80083010A128A11D82E203449346E3467349A
:1010080072346534733465342034763461346C3426
:101018006F34723420346434653473346534613425
:1010280020346D346F3473347434723461347234F0
:101038003A3420340D3400340D34203451347534AE
:101048006534203461346334633469346F346E3406
:101058002034643465347334653461342034723434
:10106800653461346C3469347A34613472343A34B6
:1010780020340D3400340D34203445346C3420349D
:10108800763461346C346F3472342034733465349C
:1010980020346834613420346D346F3473347434DC
:1010A8007234613464346F3420340D3400342034A5
:1010B8003434293420344D346F34733474347234F6
:1010C80061347234203470346F34743465346E345F
:1010D800633469346F346D346534743472346F3406
:1010E80020340D340034203431342934203444344D
:1010F8006534733470346C346534673461347234F5
:101108002034633461347234613463347434653444
:10111800723420340D3400342034333429342034EC
:101128004D346F347334743472346134723420340F
:1011380063346134643465346E34613420340D347E
:101148000034203432342934203445346E34763433
:10115800693461347234203441347334633469340B
:10116800693420340D340034203445346E347634F8
:1011780069346134723420344134733463346934EB
:1011880069343A34203400340D34203448346F3410
:101198006C34613420340D34003465347234723464
:1011A8006F34723420340D3400340D34323400344A
:1011B8000D34333400340D34343400340D343534C4
:1011C80000340D34363400340D34373400340D34E3
:1011D800383400340D34393400340D34613400347B
:08400000FF3FFF3FFF3FFF3FC0
:04400E00D438FF3F64
:00000001FF
